:020000040000fa
:080000000002040000000000f2
:020000040000fa
:10000800e0030000e80300000c040000f003000017
:10001800f8030000000400001004000008040000b9
:10002800080400000804000008040000d2020000d0
:100038000804000008040000080400000804000088
:100048000804000008040000ee0200000804000094
:100058000804000008040000080400000804000068
:100068000804000008040000080400000804000058
:100078000804000008040000080400000804000048
:100088000804000008040000080400000804000038
:020000040000fa
:100400006f8d21000eff24000e0188000000000007
:10041000000020000000e000020032000001200087
:10042000200288000c000700c0702000010020009e
:100430000f000700000020000000e0000200320072
:10044000000002000000000044070200000000005d
:100450000040da000000fe00200020000000e00064
:100460000200320010002000900188000000060009
:10047000a1028800800078000000eb001a0037001d
:10048000e280400054a0b4009101ba00e280400034
:1004900054a0b4009102ba00e280400054a0b4001d
:1004a0000002eb00472bde00f507b200a601880032
:1004b000602ce10008003a000049eb000201e8006e
:1004c000020039003420ec0002f0a0008301e900b2
:1004d000f9ff3e00040037006128e100010032000e
:1004e0000082eb00040007001101ba000200e000e6
:1004f000e3ff3a000000060004d0a300e20f490029
:100500001c003900810278003549ba000201e80078
:10051000020039003420ec0002f0a0008301e90061
:100520000f0032002549ba000201e800020039003c
:100530003420ec0002f0a0008301e9000800320042
:100540000400e0000600320015c9ba000201e8000c
:10055000020039003420ec0002f0a0008301e90021
:100560008180e80054a0b4000300e000e2ff3a00fc
:10057000000006009102ba00055978008301e900e5
:10058000f7ff3200c82ade00055978008301e90030
:10059000f3ff32000400e000f1ff320011d9ba008d
:1005a000eeff3700801f7800849fbe000000fa0035
:1005b0000068a9002480800035808000610242002c
:1005c000e0824a0024808800358088000080fa009c
:1005d0004f02be004f00780000400600801f7800e8
:1005e000849fbe00869fbe000200fa000148a90059
:1005f00040c2a9004412800004427800044f7800f1
:100600001e4278000482fb006123b90044f52f00ec
:10061000f5ff2f000602420087824a0026012000d3
:1006200007002000860f5200878f5a005a003e00b4
:1006300004060100120037004d0037003300370078
:100640005500370054003700530037005200370080
:1006500051003700500037004f0037004e00370080
:100660004d0037004c0037004b0037004a00370080
:1006700049003700100037004200370031003700d2
:1006800065c0800054c08000848242008400210044
:1006900004824200144278000482fb004412880065
:1006a00064c080008402e800f40720000482620035
:1006b00064c088003d0037000002eb0064c0880081
:1006c00044c080004722dd0054c0880044c0800040
:1006d0000402e8006f02620044c0880065c0800028
:1006e00054c08000848242008400210004824200c1
:1006f000144278000482fb004412880064c0800029
:100700000402e80064c0880028003700f4c58000b7
:100710001580800005024200144278000402fb00ac
:10072000441288000502e8001480880014808000cc
:10073000fc0f52001c003a000002eb0014808800fd
:100740001a0037000002eb0014808800f4c5800016
:100750001580800005024200144278000402fb006c
:10076000441288000502e800148088000f0037005a
:100770001400200004808800d40a2000441288005d
:100780000a0037000002eb0004808800d40b200030
:10079000441288000500370014002000441288002d
:1007a0000000000001003700000000000080fa0097
:1007b0004f03be004f02be004f007800004006000d
:1007c000801f78000000fa00c028a900ffff370052
:1007d000801f78000000fa00c068a900ffff370002
:1007e000801f78000000fa00c048a900ffff370012
:1007f000801f78000000fa00c088a900ffff3700c2
:10080000801f78000000fa00c0a8a900ffff370091
:100810000000fa00ffff37000000fa00ffff37007a
:100820000000fa00ffff37000000fa000002780025
:1008300002003700315a78000201e900e00f510050
:0c084000fcff3a000080fa0000000600f7
:020000040000fa
:10084c000000fa000500070013000700280007004d
:10085c003e0007000080fa00000006000000fa00cd
:10086c000002eb00747088000002eb00f47088004a
:10087c0010cea90011eea90014cea90015eea90006
:10088c0010eea800112ea800110ea900100ea80041
:10089c000080fa00000006000000fa00153a800003
:1008ac00f4fb2f0004836200640420007505200013
:1008bc0027742000844b7800854b7800864b780099
:1008cc00153a80000404200004037800050373002b
:1008dc00640420007505200027742000844b7800e8
:1008ec00854b7800864b78000080fa0000000600eb
:1008fc000000fa0005e1a900040128002408880082
:10090c0005428000040021000502720004428800a8
:10091c00e4222200140888000068a9000442800028
:10092c0004c0a00004d0a10004e0a0000442880090
:10093c002068a8006022b8002480880035808800d8
:10094c0005e1a8000080fa00000006000000fa0093
:10095c000002eb00041288004302a80042c2a90066
:10096c004322a90042a2a90042e2a8004342a900e6
:10097c0040c2a9002148a800244280000480a100a4
:10098c000490a00004a0a0002442880041e2a8002a
:10099c0054042000441288000080fa000000060075
:1009ac000000fa00808b2800010020004c01070099
:1009bc00a4c48000b5c4800061024200e0824a00f9
:1009cc00a4c48800b5c48800c4c48000d5c4800009
:1009dc0061024200e0824a00c4c48800d5c4880089
:1009ec00020007000080fa00000006000c00fa006c
:1009fc00a4c48000b5c48000048fbe00c4c48000b1
:100a0c00d5c480002407980035079800e5c4800001
:100a1c00e48021000482420042002000018c21006d
:100a2c00040078007dff0700e4c4800064024200eb
:100a3c00e4c48800e6c480001e02be00482ade0022
:100a4c0004427800e580210085024300844a780046
:100a5c000602e800e4c48800e6c480001e02be0062
:100a6c0040aade00cfa2de0004427800e58021001f
:100a7c0085024300844a78000602e800e4c488003a
:100a8c00e6c480001e02be00c82bdd004822de003a
:100a9c0004827300c8aade0004427800e5802100bd
:100aac0085024300844a78000602e800e4c488000a
:100abc00e6c480001e02be0004427800e5802100de
:100acc0085024300844a78000602e800e4c48800ea
:100adc00e6c480002e029000be029000482ade0080
:100aec0004427800e580210085024300844a7800a6
:100afc000602e800e4c48800e6c480002e029000e0
:100b0c00be02900040aade00cfa2de0004427800b4
:100b1c00e580210085024300844a78000602e80043
:100b2c00e4c48800e6c480002e029000be0290004f
:100b3c00c82bdd004822de0004827300c8aade0048
:100b4c0004427800e580210085024300844a780045
:100b5c000602e800e4c48800e6c480002e0290007f
:100b6c00be02900004427800e5802100850243001b
:100b7c00844a78000602e800e4c4880024808000df
:100b8c003580800084c4880095c48800e6c4800049
:100b9c0084c4800095c48000402ade0004427800a2
:100bac00e580210085024300844a78000602e800b3
:100bbc00e4c48800e6c4800084c4800095c480002e
:100bcc00c82bdd004822de0004827300c82ade0038
:100bdc0004427800e580210085024300844a7800b5
:100bec000602e800e4c48800e6c4800084c48000e7
:100bfc0095c4800004427800e58021008502430002
:100c0c00844a78000602e800e4c48800e4892100e4
:100c1c00144278000442e8000002fd009ef8b70080
:100c2c000002fd00e489210014427800e74f5200d5
:100c3c000e003a00e5c48000e480210004824200ea
:100c4c0022012000418c210004007800f3fe0700f3
:100c5c00e4c4800072024200e4c488000042eb004d
:100c6c000002fd009ef8b7000002fd00e5c4800004
:100c7c00b4072000848f52002d003a00f489210023
:100c8c0014427800040078008bf8b7000442e800a6
:100c9c00040078009ff8b700e48821001442780023
:100cac00040078008cf8b70084802100144278008e
:100cbc00040078008df8b700e48821001442780015
:100ccc000482fb004722dd00cfa2de00440798001f
:100cdc00550798004e029000de02900084027800c6
:100cec00840021000482420002082000e1802100df
:100cfc0004007800c9fe070015eea800e488210066
:100d0c00144278000442e800040078008ef8b70022
:100d1c00e4882100144278006f42620004007800dd
:100d2c008ef8b7000002eb00e4c4880015eea900b1
:100d3c000080fa00000006000000fa006022b800f3
:100d4c00a4c48800b5c488006022b800c4c488005c
:100d5c00d5c488000042eb000002fd008ef8b700fd
:100d6c000002fd000002eb00e4c488000002eb006e
:100d7c0054c088000042eb000002fd0008f8b700e8
:100d8c000002fd000042eb000002fd009ff8b700de
:100d9c000002fd000002eb0064c088000042eb0082
:100dac000002fd009ef8b7000002fd00d0fe070017
:100dbc000080fa00000006000000fa000042eb0080
:100dcc00040078008ef8b7000002eb00e4c4880041
:100ddc000042eb00040078009ef8b7000002eb0024
:100dec0054c088000002eb0064c088000042eb0095
:100dfc000400780008f8b7000042eb00040078000b
:0c0e0c009ff8b7000080fa00000006000c
:020000040000fa
:100e1800001000000e08000080000000a01800006c
:100e2800360000008200000048656c006c6f2c00e2
:100e38002074680069732000697320005061740091
:100e4800684d65005420520065764200000000009d
:100e5800a018a000a1a2a300acacac00acacac0044
:100e6800acacac00acacac00acacac00acacac006a
:100e78000e18000092000000800000000000000032
:020000040000fa
:100e88000000fa00250007006efe070014cea90036
:100e98000000000004808000e00f5200fdff3200d7
:100ea80000e62a00a10020000e000700a3ff0700ab
:100eb8000300370014cea800bafe070014cea9001c
:100ec80004808000e00f5200faff3a0000e62a0092
:100ed800a100200003000700b8ff07000000000081
:040ee800ecff3700e4
:020000040000fa
:100eec00f03fb1000180b10006003500ee030900af
:100efc0000000000403fb1000180b100fbff3d004d
:100f0c001000b000203fb000020035000080090046
:080f1c000000000000000600c7
:020000040000fa
:100f24000000fa0044042000343a88000002eb0078
:0c0f3400243a88000080fa00000006004b
:020000040000fa
:020000040002f8
:04afe000cfff00009f
:020000040000fa
:020000040002f8
:04afe400ffff00006b
:020000040000fa
:020000040002f8
:04afe8007fff0000e7
:020000040000fa
:020000040002f8
:04afec00b9ff0000a9
:020000040000fa
:020000040002f8
:04aff000fbff000063
:020000040000fa
:020000040002f8
:04aff400ffff00005b
:00000001FF
